{"abi":[{"type":"function","name":"addFile","inputs":[{"name":"_fileName","type":"string","internalType":"string"},{"name":"_arweaveTxId","type":"string","internalType":"string"},{"name":"_originalFileType","type":"string","internalType":"string"}],"outputs":[],"stateMutability":"nonpayable"},{"type":"function","name":"getFileCount","inputs":[{"name":"_user","type":"address","internalType":"address"}],"outputs":[{"name":"","type":"uint256","internalType":"uint256"}],"stateMutability":"view"},{"type":"function","name":"getFiles","inputs":[{"name":"_user","type":"address","internalType":"address"}],"outputs":[{"name":"","type":"tuple[]","internalType":"struct MetadataStorage.FileMetadata[]","components":[{"name":"fileName","type":"string","internalType":"string"},{"name":"arweaveTxId","type":"string","internalType":"string"},{"name":"originalFileType","type":"string","internalType":"string"},{"name":"timestamp","type":"uint256","internalType":"uint256"}]}],"stateMutability":"view"},{"type":"event","name":"FileAdded","inputs":[{"name":"user","type":"address","indexed":true,"internalType":"address"},{"name":"fileName","type":"string","indexed":false,"internalType":"string"},{"name":"arweaveTxId","type":"string","indexed":false,"internalType":"string"},{"name":"timestamp","type":"uint256","indexed":false,"internalType":"uint256"}],"anonymous":false}],"bytecode":{"object":"0x608060405234801561000f575f80fd5b50610e9b8061001d5f395ff3fe608060405234801561000f575f80fd5b506004361061003f575f3560e01c8063433bf37b14610043578063d45a568514610073578063fa001d7b1461008f575b5f80fd5b61005d600480360381019061005891906105bf565b6100bf565b60405161006a91906107b5565b60405180910390f35b61008d60048036038101906100889190610901565b610310565b005b6100a960048036038101906100a491906105bf565b61050e565b6040516100b691906109b4565b60405180910390f35b60605f808373ffffffffffffffffffffffffffffffffffffffff1673ffffffffffffffffffffffffffffffffffffffff1681526020019081526020015f20805480602002602001604051908101604052809291908181526020015f905b82821015610305578382905f5260205f2090600402016040518060800160405290815f8201805461014c906109fa565b80601f0160208091040260200160405190810160405280929190818152602001828054610178906109fa565b80156101c35780601f1061019a576101008083540402835291602001916101c3565b820191905f5260205f20905b8154815290600101906020018083116101a657829003601f168201915b505050505081526020016001820180546101dc906109fa565b80601f0160208091040260200160405190810160405280929190818152602001828054610208906109fa565b80156102535780601f1061022a57610100808354040283529160200191610253565b820191905f5260205f20905b81548152906001019060200180831161023657829003601f168201915b5050505050815260200160028201805461026c906109fa565b80601f0160208091040260200160405190810160405280929190818152602001828054610298906109fa565b80156102e35780601f106102ba576101008083540402835291602001916102e3565b820191905f5260205f20905b8154815290600101906020018083116102c657829003601f168201915b505050505081526020016003820154815250508152602001906001019061011c565b505050509050919050565b5f835111610353576040517f08c379a000000000000000000000000000000000000000000000000000000000815260040161034a90610a84565b60405180910390fd5b5f825111610396576040517f08c379a000000000000000000000000000000000000000000000000000000000815260040161038d90610aec565b60405180910390fd5b5f803373ffffffffffffffffffffffffffffffffffffffff1673ffffffffffffffffffffffffffffffffffffffff1681526020019081526020015f20604051806080016040528085815260200184815260200183815260200142815250908060018154018082558091505060019003905f5260205f2090600402015f909190919091505f820151815f01908161042c9190610ca7565b5060208201518160010190816104429190610ca7565b5060408201518160020190816104589190610ca7565b5060608201518160030155505060015f3373ffffffffffffffffffffffffffffffffffffffff1673ffffffffffffffffffffffffffffffffffffffff1681526020019081526020015f205f8154809291906104b290610da3565b91905055503373ffffffffffffffffffffffffffffffffffffffff167f4f8607bd9635a4433598b05ced373d34751cfcd6e7364b645aec93e4f692247584844260405161050193929190610e22565b60405180910390a2505050565b5f60015f8373ffffffffffffffffffffffffffffffffffffffff1673ffffffffffffffffffffffffffffffffffffffff1681526020019081526020015f20549050919050565b5f604051905090565b5f80fd5b5f80fd5b5f73ffffffffffffffffffffffffffffffffffffffff82169050919050565b5f61058e82610565565b9050919050565b61059e81610584565b81146105a8575f80fd5b50565b5f813590506105b981610595565b92915050565b5f602082840312156105d4576105d361055d565b5b5f6105e1848285016105ab565b91505092915050565b5f81519050919050565b5f82825260208201905092915050565b5f819050602082019050919050565b5f81519050919050565b5f82825260208201905092915050565b5f5b8381101561064a57808201518184015260208101905061062f565b5f8484015250505050565b5f601f19601f8301169050919050565b5f61066f82610613565b610679818561061d565b935061068981856020860161062d565b61069281610655565b840191505092915050565b5f819050919050565b6106af8161069d565b82525050565b5f608083015f8301518482035f8601526106cf8282610665565b915050602083015184820360208601526106e98282610665565b915050604083015184820360408601526107038282610665565b915050606083015161071860608601826106a6565b508091505092915050565b5f61072e83836106b5565b905092915050565b5f602082019050919050565b5f61074c826105ea565b61075681856105f4565b93508360208202850161076885610604565b805f5b858110156107a357848403895281516107848582610723565b945061078f83610736565b925060208a0199505060018101905061076b565b50829750879550505050505092915050565b5f6020820190508181035f8301526107cd8184610742565b905092915050565b5f80fd5b5f80fd5b7f4e487b71000000000000000000000000000000000000000000000000000000005f52604160045260245ffd5b61081382610655565b810181811067ffffffffffffffff82111715610832576108316107dd565b5b80604052505050565b5f610844610554565b9050610850828261080a565b919050565b5f67ffffffffffffffff82111561086f5761086e6107dd565b5b61087882610655565b9050602081019050919050565b828183375f83830152505050565b5f6108a56108a084610855565b61083b565b9050828152602081018484840111156108c1576108c06107d9565b5b6108cc848285610885565b509392505050565b5f82601f8301126108e8576108e76107d5565b5b81356108f8848260208601610893565b91505092915050565b5f805f606084860312156109185761091761055d565b5b5f84013567ffffffffffffffff81111561093557610934610561565b5b610941868287016108d4565b935050602084013567ffffffffffffffff81111561096257610961610561565b5b61096e868287016108d4565b925050604084013567ffffffffffffffff81111561098f5761098e610561565b5b61099b868287016108d4565b9150509250925092565b6109ae8161069d565b82525050565b5f6020820190506109c75f8301846109a5565b92915050565b7f4e487b71000000000000000000000000000000000000000000000000000000005f52602260045260245ffd5b5f6002820490506001821680610a1157607f821691505b602082108103610a2457610a236109cd565b5b50919050565b5f82825260208201905092915050565b7f46696c65206e616d652063616e6e6f7420626520656d707479000000000000005f82015250565b5f610a6e601983610a2a565b9150610a7982610a3a565b602082019050919050565b5f6020820190508181035f830152610a9b81610a62565b9050919050565b7f417277656176652054582049442063616e6e6f7420626520656d7074790000005f82015250565b5f610ad6601d83610a2a565b9150610ae182610aa2565b602082019050919050565b5f6020820190508181035f830152610b0381610aca565b9050919050565b5f819050815f5260205f209050919050565b5f6020601f8301049050919050565b5f82821b905092915050565b5f60088302610b667fffffffffffffffffffffffffffffffffffffffffffffffffffffffffffffffff82610b2b565b610b708683610b2b565b95508019841693508086168417925050509392505050565b5f819050919050565b5f610bab610ba6610ba18461069d565b610b88565b61069d565b9050919050565b5f819050919050565b610bc483610b91565b610bd8610bd082610bb2565b848454610b37565b825550505050565b5f90565b610bec610be0565b610bf7818484610bbb565b505050565b5b81811015610c1a57610c0f5f82610be4565b600181019050610bfd565b5050565b601f821115610c5f57610c3081610b0a565b610c3984610b1c565b81016020851015610c48578190505b610c5c610c5485610b1c565b830182610bfc565b50505b505050565b5f82821c905092915050565b5f610c7f5f1984600802610c64565b1980831691505092915050565b5f610c978383610c70565b9150826002028217905092915050565b610cb082610613565b67ffffffffffffffff811115610cc957610cc86107dd565b5b610cd382546109fa565b610cde828285610c1e565b5f60209050601f831160018114610d0f575f8415610cfd578287015190505b610d078582610c8c565b865550610d6e565b601f198416610d1d86610b0a565b5f5b82811015610d4457848901518255600182019150602085019450602081019050610d1f565b86831015610d615784890151610d5d601f891682610c70565b8355505b6001600288020188555050505b505050505050565b7f4e487b71000000000000000000000000000000000000000000000000000000005f52601160045260245ffd5b5f610dad8261069d565b91507fffffffffffffffffffffffffffffffffffffffffffffffffffffffffffffffff8203610ddf57610dde610d76565b5b600182019050919050565b5f610df482610613565b610dfe8185610a2a565b9350610e0e81856020860161062d565b610e1781610655565b840191505092915050565b5f6060820190508181035f830152610e3a8186610dea565b90508181036020830152610e4e8185610dea565b9050610e5d60408301846109a5565b94935050505056fea2646970667358221220e9bd07b0e57e8c0124839bd776e40dba261cdea189e57953978e41a96be6c89164736f6c63430008140033","linkReferences":{}},"methodIdentifiers":{"addFile(string,string,string)":"d45a5685","getFileCount(address)":"fa001d7b","getFiles(address)":"433bf37b"},"id":21}